{
  "_format": "hh-sol-artifact-1",
  "contractName": "Accounter",
  "sourceName": "src/backend/contracts/Accounter.sol",
  "abi": [
    {
      "inputs": [],
      "stateMutability": "nonpayable",
      "type": "constructor"
    },
    {
      "inputs": [],
      "name": "getContractBalance",
      "outputs": [
        {
          "internalType": "uint256",
          "name": "",
          "type": "uint256"
        }
      ],
      "stateMutability": "view",
      "type": "function"
    },
    {
      "inputs": [],
      "name": "saving",
      "outputs": [],
      "stateMutability": "payable",
      "type": "function"
    },
    {
      "inputs": [],
      "name": "takeAll",
      "outputs": [],
      "stateMutability": "nonpayable",
      "type": "function"
    },
    {
      "inputs": [
        {
          "internalType": "address payable",
          "name": "to",
          "type": "address"
        }
      ],
      "name": "takeToAddress",
      "outputs": [],
      "stateMutability": "nonpayable",
      "type": "function"
    },
    {
      "inputs": [],
      "name": "totalBalance",
      "outputs": [
        {
          "internalType": "uint256",
          "name": "",
          "type": "uint256"
        }
      ],
      "stateMutability": "view",
      "type": "function"
    }
  ],
  "bytecode": "0x608060405234801561001057600080fd5b506000808190555061031b806100276000396000f3fe60806040526004361061004a5760003560e01c80636f9fb98a1461004f578063ad7a672f1461007a578063cbe102d2146100a5578063de3bcb97146100af578063fb28f8b2146100c6575b600080fd5b34801561005b57600080fd5b506100646100ef565b60405161007191906101d7565b60405180910390f35b34801561008657600080fd5b5061008f6100f7565b60405161009c91906101d7565b60405180910390f35b6100ad6100fd565b005b3480156100bb57600080fd5b506100c4610117565b005b3480156100d257600080fd5b506100ed60048036038101906100e89190610255565b61016d565b005b600047905090565b60005481565b3460008082825461010e91906102b1565b92505081905550565b60003390508073ffffffffffffffffffffffffffffffffffffffff166108fc61013e6100ef565b9081150290604051600060405180830381858888f19350505050158015610169573d6000803e3d6000fd5b5050565b8073ffffffffffffffffffffffffffffffffffffffff166108fc61018f6100ef565b9081150290604051600060405180830381858888f193505050501580156101ba573d6000803e3d6000fd5b5050565b6000819050919050565b6101d1816101be565b82525050565b60006020820190506101ec60008301846101c8565b92915050565b600080fd5b600073ffffffffffffffffffffffffffffffffffffffff82169050919050565b6000610222826101f7565b9050919050565b61023281610217565b811461023d57600080fd5b50565b60008135905061024f81610229565b92915050565b60006020828403121561026b5761026a6101f2565b5b600061027984828501610240565b91505092915050565b7f4e487b7100000000000000000000000000000000000000000000000000000000600052601160045260246000fd5b60006102bc826101be565b91506102c7836101be565b92508282019050808211156102df576102de610282565b5b9291505056fea2646970667358221220dc6954ef39a361174f6bcb640dc5f7ce9d32944cc81c2da47f36576c942937e464736f6c63430008180033",
  "linkReferences": {},
  "deployedLinkReferences": {}
}