{
  "_format": "hh-sol-artifact-1",
  "contractName": "DataType",
  "sourceName": "src/backend/contracts/DataType.sol",
  "abi": [
    {
      "inputs": [
        {
          "internalType": "string",
          "name": "_myString",
          "type": "string"
        }
      ],
      "name": "compareTwoString",
      "outputs": [
        {
          "internalType": "bool",
          "name": "",
          "type": "bool"
        }
      ],
      "stateMutability": "view",
      "type": "function"
    },
    {
      "inputs": [],
      "name": "decreaseUint8",
      "outputs": [],
      "stateMutability": "nonpayable",
      "type": "function"
    },
    {
      "inputs": [],
      "name": "getAddressBalance",
      "outputs": [
        {
          "internalType": "uint256",
          "name": "",
          "type": "uint256"
        }
      ],
      "stateMutability": "view",
      "type": "function"
    },
    {
      "inputs": [],
      "name": "getCallerAddress",
      "outputs": [
        {
          "internalType": "address",
          "name": "",
          "type": "address"
        }
      ],
      "stateMutability": "view",
      "type": "function"
    },
    {
      "inputs": [],
      "name": "increaseUint8",
      "outputs": [],
      "stateMutability": "nonpayable",
      "type": "function"
    },
    {
      "inputs": [],
      "name": "myAddress",
      "outputs": [
        {
          "internalType": "address",
          "name": "",
          "type": "address"
        }
      ],
      "stateMutability": "view",
      "type": "function"
    },
    {
      "inputs": [],
      "name": "myBool",
      "outputs": [
        {
          "internalType": "bool",
          "name": "",
          "type": "bool"
        }
      ],
      "stateMutability": "view",
      "type": "function"
    },
    {
      "inputs": [],
      "name": "myBytes",
      "outputs": [
        {
          "internalType": "bytes",
          "name": "",
          "type": "bytes"
        }
      ],
      "stateMutability": "view",
      "type": "function"
    },
    {
      "inputs": [],
      "name": "myString",
      "outputs": [
        {
          "internalType": "string",
          "name": "",
          "type": "string"
        }
      ],
      "stateMutability": "view",
      "type": "function"
    },
    {
      "inputs": [],
      "name": "myUint8",
      "outputs": [
        {
          "internalType": "uint8",
          "name": "",
          "type": "uint8"
        }
      ],
      "stateMutability": "view",
      "type": "function"
    },
    {
      "inputs": [
        {
          "internalType": "address",
          "name": "_address",
          "type": "address"
        }
      ],
      "name": "setMyAddress",
      "outputs": [],
      "stateMutability": "nonpayable",
      "type": "function"
    },
    {
      "inputs": [
        {
          "internalType": "string",
          "name": "_myString",
          "type": "string"
        }
      ],
      "name": "setMyString",
      "outputs": [],
      "stateMutability": "nonpayable",
      "type": "function"
    },
    {
      "inputs": [
        {
          "internalType": "uint8",
          "name": "val",
          "type": "uint8"
        }
      ],
      "name": "setMyUint8",
      "outputs": [],
      "stateMutability": "nonpayable",
      "type": "function"
    }
  ],
  "bytecode": "0x60806040526040518060400160405280600b81526020017f68656c6c6f20776f726c64000000000000000000000000000000000000000000815250600190816200004a919062000320565b506040518060400160405280600b81526020017f68656c6c6f20776f726c64000000000000000000000000000000000000000000815250600290816200009191906200046c565b503480156200009f57600080fd5b5062000553565b600081519050919050565b7f4e487b7100000000000000000000000000000000000000000000000000000000600052604160045260246000fd5b7f4e487b7100000000000000000000000000000000000000000000000000000000600052602260045260246000fd5b600060028204905060018216806200012857607f821691505b6020821081036200013e576200013d620000e0565b5b50919050565b60008190508160005260206000209050919050565b60006020601f8301049050919050565b600082821b905092915050565b600060088302620001a87fffffffffffffffffffffffffffffffffffffffffffffffffffffffffffffffff8262000169565b620001b4868362000169565b95508019841693508086168417925050509392505050565b6000819050919050565b6000819050919050565b600062000201620001fb620001f584620001cc565b620001d6565b620001cc565b9050919050565b6000819050919050565b6200021d83620001e0565b620002356200022c8262000208565b84845462000176565b825550505050565b600090565b6200024c6200023d565b6200025981848462000212565b505050565b5b8181101562000281576200027560008262000242565b6001810190506200025f565b5050565b601f821115620002d0576200029a8162000144565b620002a58462000159565b81016020851015620002b5578190505b620002cd620002c48562000159565b8301826200025e565b50505b505050565b600082821c905092915050565b6000620002f560001984600802620002d5565b1980831691505092915050565b6000620003108383620002e2565b9150826002028217905092915050565b6200032b82620000a6565b67ffffffffffffffff811115620003475762000346620000b1565b5b6200035382546200010f565b6200036082828562000285565b600060209050601f83116001811462000398576000841562000383578287015190505b6200038f858262000302565b865550620003ff565b601f198416620003a88662000144565b60005b82811015620003d257848901518255600182019150602085019450602081019050620003ab565b86831015620003f25784890151620003ee601f891682620002e2565b8355505b6001600288020188555050505b505050505050565b60008190508160005260206000209050919050565b601f8211156200046757620004318162000407565b6200043c8462000159565b810160208510156200044c578190505b620004646200045b8562000159565b8301826200025e565b50505b505050565b6200047782620000a6565b67ffffffffffffffff811115620004935762000492620000b1565b5b6200049f82546200010f565b620004ac8282856200041c565b600060209050601f831160018114620004e45760008415620004cf578287015190505b620004db858262000302565b8655506200054b565b601f198416620004f48662000407565b60005b828110156200051e57848901518255600182019150602085019450602081019050620004f7565b868310156200053e57848901516200053a601f891682620002e2565b8355505b6001600288020188555050505b505050505050565b610e1b80620005636000396000f3fe608060405234801561001057600080fd5b50600436106100cf5760003560e01c8063712f46021161008c578063821805681161006657806382180568146101de578063a8a7b895146101fa578063e2a4b2af14610216578063ecbbb96714610234576100cf565b8063712f46021461017257806375eb2ad1146101905780637c66d013146101ae576100cf565b806326b85ee1146100d457806346b3353b146100f2578063492bfa18146101105780634f25eada1461012e5780636d5875ed1461014a5780636deecdbe14610154575b600080fd5b6100dc61023e565b6040516100e99190610570565b60405180910390f35b6100fa610264565b6040516101079190610570565b60405180910390f35b61011861026c565b604051610125919061061b565b60405180910390f35b6101486004803603810190610143919061068a565b6102fa565b005b610152610318565b005b61015c610352565b60405161016991906106d2565b60405180910390f35b61017a610363565b6040516101879190610742565b60405180910390f35b6101986103f1565b6040516101a5919061077d565b60405180910390f35b6101c860048036038101906101c391906108cd565b610432565b6040516101d591906106d2565b60405180910390f35b6101f860048036038101906101f391906108cd565b61048b565b005b610214600480360381019061020f9190610942565b61049e565b005b61021e6104e2565b60405161022b919061097e565b60405180910390f35b61023c6104f5565b005b600360009054906101000a900473ffffffffffffffffffffffffffffffffffffffff1681565b600033905090565b60018054610279906109c8565b80601f01602080910402602001604051908101604052809291908181526020018280546102a5906109c8565b80156102f25780601f106102c7576101008083540402835291602001916102f2565b820191906000526020600020905b8154815290600101906020018083116102d557829003601f168201915b505050505081565b80600060016101000a81548160ff021916908360ff16021790555050565b6000600181819054906101000a900460ff168092919061033790610a28565b91906101000a81548160ff021916908360ff16021790555050565b60008054906101000a900460ff1681565b60028054610370906109c8565b80601f016020809104026020016040519081016040528092919081815260200182805461039c906109c8565b80156103e95780601f106103be576101008083540402835291602001916103e9565b820191906000526020600020905b8154815290600101906020018083116103cc57829003601f168201915b505050505081565b6000600360009054906101000a900473ffffffffffffffffffffffffffffffffffffffff1673ffffffffffffffffffffffffffffffffffffffff1631905090565b6000816040516020016104459190610a8d565b60405160208183030381529060405280519060200120600160405160200161046d9190610b3c565b60405160208183030381529060405280519060200120149050919050565b806001908161049a9190610cea565b5050565b80600360006101000a81548173ffffffffffffffffffffffffffffffffffffffff021916908373ffffffffffffffffffffffffffffffffffffffff16021790555050565b600060019054906101000a900460ff1681565b6000600181819054906101000a900460ff168092919061051490610dbc565b91906101000a81548160ff021916908360ff16021790555050565b600073ffffffffffffffffffffffffffffffffffffffff82169050919050565b600061055a8261052f565b9050919050565b61056a8161054f565b82525050565b60006020820190506105856000830184610561565b92915050565b600081519050919050565b600082825260208201905092915050565b60005b838110156105c55780820151818401526020810190506105aa565b60008484015250505050565b6000601f19601f8301169050919050565b60006105ed8261058b565b6105f78185610596565b93506106078185602086016105a7565b610610816105d1565b840191505092915050565b6000602082019050818103600083015261063581846105e2565b905092915050565b6000604051905090565b600080fd5b600080fd5b600060ff82169050919050565b61066781610651565b811461067257600080fd5b50565b6000813590506106848161065e565b92915050565b6000602082840312156106a05761069f610647565b5b60006106ae84828501610675565b91505092915050565b60008115159050919050565b6106cc816106b7565b82525050565b60006020820190506106e760008301846106c3565b92915050565b600081519050919050565b600082825260208201905092915050565b6000610714826106ed565b61071e81856106f8565b935061072e8185602086016105a7565b610737816105d1565b840191505092915050565b6000602082019050818103600083015261075c8184610709565b905092915050565b6000819050919050565b61077781610764565b82525050565b6000602082019050610792600083018461076e565b92915050565b600080fd5b600080fd5b7f4e487b7100000000000000000000000000000000000000000000000000000000600052604160045260246000fd5b6107da826105d1565b810181811067ffffffffffffffff821117156107f9576107f86107a2565b5b80604052505050565b600061080c61063d565b905061081882826107d1565b919050565b600067ffffffffffffffff821115610838576108376107a2565b5b610841826105d1565b9050602081019050919050565b82818337600083830152505050565b600061087061086b8461081d565b610802565b90508281526020810184848401111561088c5761088b61079d565b5b61089784828561084e565b509392505050565b600082601f8301126108b4576108b3610798565b5b81356108c484826020860161085d565b91505092915050565b6000602082840312156108e3576108e2610647565b5b600082013567ffffffffffffffff8111156109015761090061064c565b5b61090d8482850161089f565b91505092915050565b61091f8161054f565b811461092a57600080fd5b50565b60008135905061093c81610916565b92915050565b60006020828403121561095857610957610647565b5b60006109668482850161092d565b91505092915050565b61097881610651565b82525050565b6000602082019050610993600083018461096f565b92915050565b7f4e487b7100000000000000000000000000000000000000000000000000000000600052602260045260246000fd5b600060028204905060018216806109e057607f821691505b6020821081036109f3576109f2610999565b5b50919050565b7f4e487b7100000000000000000000000000000000000000000000000000000000600052601160045260246000fd5b6000610a3382610651565b915060008203610a4657610a456109f9565b5b600182039050919050565b600081905092915050565b6000610a678261058b565b610a718185610a51565b9350610a818185602086016105a7565b80840191505092915050565b6000610a998284610a5c565b915081905092915050565b60008190508160005260206000209050919050565b60008154610ac6816109c8565b610ad08186610a51565b94506001821660008114610aeb5760018114610b0057610b33565b60ff1983168652811515820286019350610b33565b610b0985610aa4565b60005b83811015610b2b57815481890152600182019150602081019050610b0c565b838801955050505b50505092915050565b6000610b488284610ab9565b915081905092915050565b60006020601f8301049050919050565b600082821b905092915050565b600060088302610ba07fffffffffffffffffffffffffffffffffffffffffffffffffffffffffffffffff82610b63565b610baa8683610b63565b95508019841693508086168417925050509392505050565b6000819050919050565b6000610be7610be2610bdd84610764565b610bc2565b610764565b9050919050565b6000819050919050565b610c0183610bcc565b610c15610c0d82610bee565b848454610b70565b825550505050565b600090565b610c2a610c1d565b610c35818484610bf8565b505050565b5b81811015610c5957610c4e600082610c22565b600181019050610c3b565b5050565b601f821115610c9e57610c6f81610aa4565b610c7884610b53565b81016020851015610c87578190505b610c9b610c9385610b53565b830182610c3a565b50505b505050565b600082821c905092915050565b6000610cc160001984600802610ca3565b1980831691505092915050565b6000610cda8383610cb0565b9150826002028217905092915050565b610cf38261058b565b67ffffffffffffffff811115610d0c57610d0b6107a2565b5b610d1682546109c8565b610d21828285610c5d565b600060209050601f831160018114610d545760008415610d42578287015190505b610d4c8582610cce565b865550610db4565b601f198416610d6286610aa4565b60005b82811015610d8a57848901518255600182019150602085019450602081019050610d65565b86831015610da75784890151610da3601f891682610cb0565b8355505b6001600288020188555050505b505050505050565b6000610dc782610651565b915060ff8203610dda57610dd96109f9565b5b60018201905091905056fea2646970667358221220df5dfe3486c83616ea58ce9f9088991768106ff1feda69e1f916ab4808c532fa64736f6c63430008180033",
  "linkReferences": {},
  "deployedLinkReferences": {}
}