{
  "_format": "hh-sol-artifact-1",
  "contractName": "Manager",
  "sourceName": "src/backend/contracts/Manager.sol",
  "abi": [
    {
      "inputs": [],
      "stateMutability": "nonpayable",
      "type": "constructor"
    },
    {
      "inputs": [],
      "name": "greetVisitor",
      "outputs": [
        {
          "internalType": "string",
          "name": "",
          "type": "string"
        }
      ],
      "stateMutability": "pure",
      "type": "function"
    },
    {
      "inputs": [],
      "name": "message",
      "outputs": [
        {
          "internalType": "string",
          "name": "",
          "type": "string"
        }
      ],
      "stateMutability": "view",
      "type": "function"
    },
    {
      "inputs": [],
      "name": "owner",
      "outputs": [
        {
          "internalType": "address",
          "name": "",
          "type": "address"
        }
      ],
      "stateMutability": "view",
      "type": "function"
    },
    {
      "inputs": [],
      "name": "payedMsg",
      "outputs": [
        {
          "internalType": "string",
          "name": "",
          "type": "string"
        }
      ],
      "stateMutability": "view",
      "type": "function"
    },
    {
      "inputs": [
        {
          "internalType": "string",
          "name": "_msg",
          "type": "string"
        }
      ],
      "name": "updatePayedMsg",
      "outputs": [],
      "stateMutability": "payable",
      "type": "function"
    },
    {
      "inputs": [
        {
          "internalType": "address",
          "name": "visitor",
          "type": "address"
        }
      ],
      "name": "visit",
      "outputs": [],
      "stateMutability": "nonpayable",
      "type": "function"
    },
    {
      "inputs": [],
      "name": "visitorCount",
      "outputs": [
        {
          "internalType": "uint256",
          "name": "",
          "type": "uint256"
        }
      ],
      "stateMutability": "view",
      "type": "function"
    }
  ],
  "bytecode": "0x60806040523480156200001157600080fd5b50600060018190555033600260006101000a81548173ffffffffffffffffffffffffffffffffffffffff021916908373ffffffffffffffffffffffffffffffffffffffff1602179055506040518060400160405280600b81526020017f68656c6c6f20776f726c6400000000000000000000000000000000000000000081525060039081620000a1919062000322565b5062000409565b600081519050919050565b7f4e487b7100000000000000000000000000000000000000000000000000000000600052604160045260246000fd5b7f4e487b7100000000000000000000000000000000000000000000000000000000600052602260045260246000fd5b600060028204905060018216806200012a57607f821691505b60208210810362000140576200013f620000e2565b5b50919050565b60008190508160005260206000209050919050565b60006020601f8301049050919050565b600082821b905092915050565b600060088302620001aa7fffffffffffffffffffffffffffffffffffffffffffffffffffffffffffffffff826200016b565b620001b686836200016b565b95508019841693508086168417925050509392505050565b6000819050919050565b6000819050919050565b600062000203620001fd620001f784620001ce565b620001d8565b620001ce565b9050919050565b6000819050919050565b6200021f83620001e2565b620002376200022e826200020a565b84845462000178565b825550505050565b600090565b6200024e6200023f565b6200025b81848462000214565b505050565b5b8181101562000283576200027760008262000244565b60018101905062000261565b5050565b601f821115620002d2576200029c8162000146565b620002a7846200015b565b81016020851015620002b7578190505b620002cf620002c6856200015b565b83018262000260565b50505b505050565b600082821c905092915050565b6000620002f760001984600802620002d7565b1980831691505092915050565b6000620003128383620002e4565b9150826002028217905092915050565b6200032d82620000a8565b67ffffffffffffffff811115620003495762000348620000b3565b5b62000355825462000111565b6200036282828562000287565b600060209050601f8311600181146200039a576000841562000385578287015190505b62000391858262000304565b86555062000401565b601f198416620003aa8662000146565b60005b82811015620003d457848901518255600182019150602085019450602081019050620003ad565b86831015620003f45784890151620003f0601f891682620002e4565b8355505b6001600288020188555050505b505050505050565b610e8e80620004196000396000f3fe6080604052600436106100705760003560e01c80638da5cb5b1161004e5780638da5cb5b146100f657806395bc26d314610121578063e21f37ce1461013d578063ed40b1911461016857610070565b806301447278146100755780630237df35146100a05780630ba37024146100cb575b600080fd5b34801561008157600080fd5b5061008a610191565b60405161009791906107ca565b60405180910390f35b3480156100ac57600080fd5b506100b56101b1565b6040516100c291906107ca565b60405180910390f35b3480156100d757600080fd5b506100e061023f565b6040516100ed9190610805565b60405180910390f35b34801561010257600080fd5b5061010b610245565b6040516101189190610861565b60405180910390f35b61013b600480360381019061013691906109c5565b61026b565b005b34801561014957600080fd5b5061015261031f565b60405161015f91906107ca565b60405180910390f35b34801561017457600080fd5b5061018f600480360381019061018a9190610a3a565b6103ad565b005b6060604051806060016040528060218152602001610e3860219139905090565b600380546101be90610a96565b80601f01602080910402602001604051908101604052809291908181526020018280546101ea90610a96565b80156102375780601f1061020c57610100808354040283529160200191610237565b820191906000526020600020905b81548152906001019060200180831161021a57829003601f168201915b505050505081565b60015481565b600260009054906101000a900473ffffffffffffffffffffffffffffffffffffffff1681565b670de0b6b3a7640000341061028f5780600390816102899190610c73565b5061031c565b3373ffffffffffffffffffffffffffffffffffffffff166108fc349081150290604051600060405180830381858888f193505050501580156102d5573d6000803e3d6000fd5b506040518060400160405280600b81526020017f68656c6c6f20776f726c640000000000000000000000000000000000000000008152506003908161031a9190610c73565b505b50565b6000805461032c90610a96565b80601f016020809104026020016040519081016040528092919081815260200182805461035890610a96565b80156103a55780601f1061037a576101008083540402835291602001916103a5565b820191906000526020600020905b81548152906001019060200180831161038857829003601f168201915b505050505081565b600260009054906101000a900473ffffffffffffffffffffffffffffffffffffffff1673ffffffffffffffffffffffffffffffffffffffff168173ffffffffffffffffffffffffffffffffffffffff16036104e55760006040518060400160405280601381526020017f686920626f73732c20746865726520617265200000000000000000000000000081525090506000610449600154610519565b905060006040518060400160405280601381526020017f206f662076697369746f727320636f6d696e670000000000000000000000000081525090506000838360405160200161049a929190610d81565b604051602081830303815290604052905080826040516020016104be929190610d81565b604051602081830303815290604052600090816104db9190610c73565b5050505050610516565b60018060008282546104f79190610dd4565b92505081905550610506610191565b600090816105149190610c73565b505b50565b606060006001610528846105e7565b01905060008167ffffffffffffffff8111156105475761054661089a565b5b6040519080825280601f01601f1916602001820160405280156105795781602001600182028036833780820191505090505b509050600082602001820190505b6001156105dc578080600190039150507f3031323334353637383961626364656600000000000000000000000000000000600a86061a8153600a85816105d0576105cf610e08565b5b04945060008503610587575b819350505050919050565b600080600090507a184f03e93ff9f4daa797ed6e38ed64bf6a1f0100000000000000008310610645577a184f03e93ff9f4daa797ed6e38ed64bf6a1f010000000000000000838161063b5761063a610e08565b5b0492506040810190505b6d04ee2d6d415b85acef81000000008310610682576d04ee2d6d415b85acef8100000000838161067857610677610e08565b5b0492506020810190505b662386f26fc1000083106106b157662386f26fc1000083816106a7576106a6610e08565b5b0492506010810190505b6305f5e10083106106da576305f5e10083816106d0576106cf610e08565b5b0492506008810190505b61271083106106ff5761271083816106f5576106f4610e08565b5b0492506004810190505b60648310610722576064838161071857610717610e08565b5b0492506002810190505b600a8310610731576001810190505b80915050919050565b600081519050919050565b600082825260208201905092915050565b60005b83811015610774578082015181840152602081019050610759565b60008484015250505050565b6000601f19601f8301169050919050565b600061079c8261073a565b6107a68185610745565b93506107b6818560208601610756565b6107bf81610780565b840191505092915050565b600060208201905081810360008301526107e48184610791565b905092915050565b6000819050919050565b6107ff816107ec565b82525050565b600060208201905061081a60008301846107f6565b92915050565b600073ffffffffffffffffffffffffffffffffffffffff82169050919050565b600061084b82610820565b9050919050565b61085b81610840565b82525050565b60006020820190506108766000830184610852565b92915050565b6000604051905090565b600080fd5b600080fd5b600080fd5b600080fd5b7f4e487b7100000000000000000000000000000000000000000000000000000000600052604160045260246000fd5b6108d282610780565b810181811067ffffffffffffffff821117156108f1576108f061089a565b5b80604052505050565b600061090461087c565b905061091082826108c9565b919050565b600067ffffffffffffffff8211156109305761092f61089a565b5b61093982610780565b9050602081019050919050565b82818337600083830152505050565b600061096861096384610915565b6108fa565b90508281526020810184848401111561098457610983610895565b5b61098f848285610946565b509392505050565b600082601f8301126109ac576109ab610890565b5b81356109bc848260208601610955565b91505092915050565b6000602082840312156109db576109da610886565b5b600082013567ffffffffffffffff8111156109f9576109f861088b565b5b610a0584828501610997565b91505092915050565b610a1781610840565b8114610a2257600080fd5b50565b600081359050610a3481610a0e565b92915050565b600060208284031215610a5057610a4f610886565b5b6000610a5e84828501610a25565b91505092915050565b7f4e487b7100000000000000000000000000000000000000000000000000000000600052602260045260246000fd5b60006002820490506001821680610aae57607f821691505b602082108103610ac157610ac0610a67565b5b50919050565b60008190508160005260206000209050919050565b60006020601f8301049050919050565b600082821b905092915050565b600060088302610b297fffffffffffffffffffffffffffffffffffffffffffffffffffffffffffffffff82610aec565b610b338683610aec565b95508019841693508086168417925050509392505050565b6000819050919050565b6000610b70610b6b610b66846107ec565b610b4b565b6107ec565b9050919050565b6000819050919050565b610b8a83610b55565b610b9e610b9682610b77565b848454610af9565b825550505050565b600090565b610bb3610ba6565b610bbe818484610b81565b505050565b5b81811015610be257610bd7600082610bab565b600181019050610bc4565b5050565b601f821115610c2757610bf881610ac7565b610c0184610adc565b81016020851015610c10578190505b610c24610c1c85610adc565b830182610bc3565b50505b505050565b600082821c905092915050565b6000610c4a60001984600802610c2c565b1980831691505092915050565b6000610c638383610c39565b9150826002028217905092915050565b610c7c8261073a565b67ffffffffffffffff811115610c9557610c9461089a565b5b610c9f8254610a96565b610caa828285610be6565b600060209050601f831160018114610cdd5760008415610ccb578287015190505b610cd58582610c57565b865550610d3d565b601f198416610ceb86610ac7565b60005b82811015610d1357848901518255600182019150602085019450602081019050610cee565b86831015610d305784890151610d2c601f891682610c39565b8355505b6001600288020188555050505b505050505050565b600081905092915050565b6000610d5b8261073a565b610d658185610d45565b9350610d75818560208601610756565b80840191505092915050565b6000610d8d8285610d50565b9150610d998284610d50565b91508190509392505050565b7f4e487b7100000000000000000000000000000000000000000000000000000000600052601160045260246000fd5b6000610ddf826107ec565b9150610dea836107ec565b9250828201905080821115610e0257610e01610da5565b5b92915050565b7f4e487b7100000000000000000000000000000000000000000000000000000000600052601260045260246000fdfe48692c2077656c636f6d6520746f206f757220736d61727420636f6e7472616374a26469706673582212201bb89316443119444e71b6296e96a9440dcc42d13f9d1f3e6503c7efbb5f38dd64736f6c63430008180033",
  "linkReferences": {},
  "deployedLinkReferences": {}
}