{"src/backend/contracts/Manager.sol":{"Manager":{"abi":[{"inputs":[],"stateMutability":"nonpayable","type":"constructor"},{"inputs":[],"name":"greetVisitor","outputs":[{"internalType":"string","name":"","type":"string"}],"stateMutability":"pure","type":"function"},{"inputs":[],"name":"message","outputs":[{"internalType":"string","name":"","type":"string"}],"stateMutability":"view","type":"function"},{"inputs":[],"name":"owner","outputs":[{"internalType":"address","name":"","type":"address"}],"stateMutability":"view","type":"function"},{"inputs":[],"name":"payedMsg","outputs":[{"internalType":"string","name":"","type":"string"}],"stateMutability":"view","type":"function"},{"inputs":[{"internalType":"string","name":"_msg","type":"string"}],"name":"updatePayedMsg","outputs":[],"stateMutability":"payable","type":"function"},{"inputs":[{"internalType":"address","name":"visitor","type":"address"}],"name":"visit","outputs":[],"stateMutability":"nonpayable","type":"function"},{"inputs":[],"name":"visitorCount","outputs":[{"internalType":"uint256","name":"","type":"uint256"}],"stateMutability":"view","type":"function"}],"evm":{"bytecode":{"linkReferences":{},"object":"60806040523480156200001157600080fd5b50600060018190555033600260006101000a81548173ffffffffffffffffffffffffffffffffffffffff021916908373ffffffffffffffffffffffffffffffffffffffff1602179055506040518060400160405280600b81526020017f68656c6c6f20776f726c6400000000000000000000000000000000000000000081525060039081620000a1919062000322565b5062000409565b600081519050919050565b7f4e487b7100000000000000000000000000000000000000000000000000000000600052604160045260246000fd5b7f4e487b7100000000000000000000000000000000000000000000000000000000600052602260045260246000fd5b600060028204905060018216806200012a57607f821691505b60208210810362000140576200013f620000e2565b5b50919050565b60008190508160005260206000209050919050565b60006020601f8301049050919050565b600082821b905092915050565b600060088302620001aa7fffffffffffffffffffffffffffffffffffffffffffffffffffffffffffffffff826200016b565b620001b686836200016b565b95508019841693508086168417925050509392505050565b6000819050919050565b6000819050919050565b600062000203620001fd620001f784620001ce565b620001d8565b620001ce565b9050919050565b6000819050919050565b6200021f83620001e2565b620002376200022e826200020a565b84845462000178565b825550505050565b600090565b6200024e6200023f565b6200025b81848462000214565b505050565b5b8181101562000283576200027760008262000244565b60018101905062000261565b5050565b601f821115620002d2576200029c8162000146565b620002a7846200015b565b81016020851015620002b7578190505b620002cf620002c6856200015b565b83018262000260565b50505b505050565b600082821c905092915050565b6000620002f760001984600802620002d7565b1980831691505092915050565b6000620003128383620002e4565b9150826002028217905092915050565b6200032d82620000a8565b67ffffffffffffffff811115620003495762000348620000b3565b5b62000355825462000111565b6200036282828562000287565b600060209050601f8311600181146200039a576000841562000385578287015190505b62000391858262000304565b86555062000401565b601f198416620003aa8662000146565b60005b82811015620003d457848901518255600182019150602085019450602081019050620003ad565b86831015620003f45784890151620003f0601f891682620002e4565b8355505b6001600288020188555050505b505050505050565b610e8e80620004196000396000f3fe6080604052600436106100705760003560e01c80638da5cb5b1161004e5780638da5cb5b146100f657806395bc26d314610121578063e21f37ce1461013d578063ed40b1911461016857610070565b806301447278146100755780630237df35146100a05780630ba37024146100cb575b600080fd5b34801561008157600080fd5b5061008a610191565b60405161009791906107ca565b60405180910390f35b3480156100ac57600080fd5b506100b56101b1565b6040516100c291906107ca565b60405180910390f35b3480156100d757600080fd5b506100e061023f565b6040516100ed9190610805565b60405180910390f35b34801561010257600080fd5b5061010b610245565b6040516101189190610861565b60405180910390f35b61013b600480360381019061013691906109c5565b61026b565b005b34801561014957600080fd5b5061015261031f565b60405161015f91906107ca565b60405180910390f35b34801561017457600080fd5b5061018f600480360381019061018a9190610a3a565b6103ad565b005b6060604051806060016040528060218152602001610e3860219139905090565b600380546101be90610a96565b80601f01602080910402602001604051908101604052809291908181526020018280546101ea90610a96565b80156102375780601f1061020c57610100808354040283529160200191610237565b820191906000526020600020905b81548152906001019060200180831161021a57829003601f168201915b505050505081565b60015481565b600260009054906101000a900473ffffffffffffffffffffffffffffffffffffffff1681565b670de0b6b3a7640000341061028f5780600390816102899190610c73565b5061031c565b3373ffffffffffffffffffffffffffffffffffffffff166108fc349081150290604051600060405180830381858888f193505050501580156102d5573d6000803e3d6000fd5b506040518060400160405280600b81526020017f68656c6c6f20776f726c640000000000000000000000000000000000000000008152506003908161031a9190610c73565b505b50565b6000805461032c90610a96565b80601f016020809104026020016040519081016040528092919081815260200182805461035890610a96565b80156103a55780601f1061037a576101008083540402835291602001916103a5565b820191906000526020600020905b81548152906001019060200180831161038857829003601f168201915b505050505081565b600260009054906101000a900473ffffffffffffffffffffffffffffffffffffffff1673ffffffffffffffffffffffffffffffffffffffff168173ffffffffffffffffffffffffffffffffffffffff16036104e55760006040518060400160405280601381526020017f686920626f73732c20746865726520617265200000000000000000000000000081525090506000610449600154610519565b905060006040518060400160405280601381526020017f206f662076697369746f727320636f6d696e670000000000000000000000000081525090506000838360405160200161049a929190610d81565b604051602081830303815290604052905080826040516020016104be929190610d81565b604051602081830303815290604052600090816104db9190610c73565b5050505050610516565b60018060008282546104f79190610dd4565b92505081905550610506610191565b600090816105149190610c73565b505b50565b606060006001610528846105e7565b01905060008167ffffffffffffffff8111156105475761054661089a565b5b6040519080825280601f01601f1916602001820160405280156105795781602001600182028036833780820191505090505b509050600082602001820190505b6001156105dc578080600190039150507f3031323334353637383961626364656600000000000000000000000000000000600a86061a8153600a85816105d0576105cf610e08565b5b04945060008503610587575b819350505050919050565b600080600090507a184f03e93ff9f4daa797ed6e38ed64bf6a1f0100000000000000008310610645577a184f03e93ff9f4daa797ed6e38ed64bf6a1f010000000000000000838161063b5761063a610e08565b5b0492506040810190505b6d04ee2d6d415b85acef81000000008310610682576d04ee2d6d415b85acef8100000000838161067857610677610e08565b5b0492506020810190505b662386f26fc1000083106106b157662386f26fc1000083816106a7576106a6610e08565b5b0492506010810190505b6305f5e10083106106da576305f5e10083816106d0576106cf610e08565b5b0492506008810190505b61271083106106ff5761271083816106f5576106f4610e08565b5b0492506004810190505b60648310610722576064838161071857610717610e08565b5b0492506002810190505b600a8310610731576001810190505b80915050919050565b600081519050919050565b600082825260208201905092915050565b60005b83811015610774578082015181840152602081019050610759565b60008484015250505050565b6000601f19601f8301169050919050565b600061079c8261073a565b6107a68185610745565b93506107b6818560208601610756565b6107bf81610780565b840191505092915050565b600060208201905081810360008301526107e48184610791565b905092915050565b6000819050919050565b6107ff816107ec565b82525050565b600060208201905061081a60008301846107f6565b92915050565b600073ffffffffffffffffffffffffffffffffffffffff82169050919050565b600061084b82610820565b9050919050565b61085b81610840565b82525050565b60006020820190506108766000830184610852565b92915050565b6000604051905090565b600080fd5b600080fd5b600080fd5b600080fd5b7f4e487b7100000000000000000000000000000000000000000000000000000000600052604160045260246000fd5b6108d282610780565b810181811067ffffffffffffffff821117156108f1576108f061089a565b5b80604052505050565b600061090461087c565b905061091082826108c9565b919050565b600067ffffffffffffffff8211156109305761092f61089a565b5b61093982610780565b9050602081019050919050565b82818337600083830152505050565b600061096861096384610915565b6108fa565b90508281526020810184848401111561098457610983610895565b5b61098f848285610946565b509392505050565b600082601f8301126109ac576109ab610890565b5b81356109bc848260208601610955565b91505092915050565b6000602082840312156109db576109da610886565b5b600082013567ffffffffffffffff8111156109f9576109f861088b565b5b610a0584828501610997565b91505092915050565b610a1781610840565b8114610a2257600080fd5b50565b600081359050610a3481610a0e565b92915050565b600060208284031215610a5057610a4f610886565b5b6000610a5e84828501610a25565b91505092915050565b7f4e487b7100000000000000000000000000000000000000000000000000000000600052602260045260246000fd5b60006002820490506001821680610aae57607f821691505b602082108103610ac157610ac0610a67565b5b50919050565b60008190508160005260206000209050919050565b60006020601f8301049050919050565b600082821b905092915050565b600060088302610b297fffffffffffffffffffffffffffffffffffffffffffffffffffffffffffffffff82610aec565b610b338683610aec565b95508019841693508086168417925050509392505050565b6000819050919050565b6000610b70610b6b610b66846107ec565b610b4b565b6107ec565b9050919050565b6000819050919050565b610b8a83610b55565b610b9e610b9682610b77565b848454610af9565b825550505050565b600090565b610bb3610ba6565b610bbe818484610b81565b505050565b5b81811015610be257610bd7600082610bab565b600181019050610bc4565b5050565b601f821115610c2757610bf881610ac7565b610c0184610adc565b81016020851015610c10578190505b610c24610c1c85610adc565b830182610bc3565b50505b505050565b600082821c905092915050565b6000610c4a60001984600802610c2c565b1980831691505092915050565b6000610c638383610c39565b9150826002028217905092915050565b610c7c8261073a565b67ffffffffffffffff811115610c9557610c9461089a565b5b610c9f8254610a96565b610caa828285610be6565b600060209050601f831160018114610cdd5760008415610ccb578287015190505b610cd58582610c57565b865550610d3d565b601f198416610ceb86610ac7565b60005b82811015610d1357848901518255600182019150602085019450602081019050610cee565b86831015610d305784890151610d2c601f891682610c39565b8355505b6001600288020188555050505b505050505050565b600081905092915050565b6000610d5b8261073a565b610d658185610d45565b9350610d75818560208601610756565b80840191505092915050565b6000610d8d8285610d50565b9150610d998284610d50565b91508190509392505050565b7f4e487b7100000000000000000000000000000000000000000000000000000000600052601160045260246000fd5b6000610ddf826107ec565b9150610dea836107ec565b9250828201905080821115610e0257610e01610da5565b5b92915050565b7f4e487b7100000000000000000000000000000000000000000000000000000000600052601260045260246000fdfe48692c2077656c636f6d6520746f206f757220736d61727420636f6e7472616374a26469706673582212201bb89316443119444e71b6296e96a9440dcc42d13f9d1f3e6503c7efbb5f38dd64736f6c63430008180033","opcodes":"PUSH1 0x80 PUSH1 0x40 MSTORE CALLVALUE DUP1 ISZERO PUSH3 0x11 JUMPI PUSH1 0x0 DUP1 REVERT JUMPDEST POP PUSH1 0x0 PUSH1 0x1 DUP2 SWAP1 SSTORE POP CALLER PUSH1 0x2 PUSH1 0x0 PUSH2 0x100 EXP DUP2 SLOAD DUP2 PUSH20 0xFFFFFFFFFFFFFFFFFFFFFFFFFFFFFFFFFFFFFFFF MUL NOT AND SWAP1 DUP4 PUSH20 0xFFFFFFFFFFFFFFFFFFFFFFFFFFFFFFFFFFFFFFFF AND MUL OR SWAP1 SSTORE POP PUSH1 0x40 MLOAD DUP1 PUSH1 0x40 ADD PUSH1 0x40 MSTORE DUP1 PUSH1 0xB DUP2 MSTORE PUSH1 0x20 ADD PUSH32 0x68656C6C6F20776F726C64000000000000000000000000000000000000000000 DUP2 MSTORE POP PUSH1 0x3 SWAP1 DUP2 PUSH3 0xA1 SWAP2 SWAP1 PUSH3 0x322 JUMP JUMPDEST POP PUSH3 0x409 JUMP JUMPDEST PUSH1 0x0 DUP2 MLOAD SWAP1 POP SWAP2 SWAP1 POP JUMP JUMPDEST PUSH32 0x4E487B7100000000000000000000000000000000000000000000000000000000 PUSH1 0x0 MSTORE PUSH1 0x41 PUSH1 0x4 MSTORE PUSH1 0x24 PUSH1 0x0 REVERT JUMPDEST PUSH32 0x4E487B7100000000000000000000000000000000000000000000000000000000 PUSH1 0x0 MSTORE PUSH1 0x22 PUSH1 0x4 MSTORE PUSH1 0x24 PUSH1 0x0 REVERT JUMPDEST PUSH1 0x0 PUSH1 0x2 DUP3 DIV SWAP1 POP PUSH1 0x1 DUP3 AND DUP1 PUSH3 0x12A JUMPI PUSH1 0x7F DUP3 AND SWAP2 POP JUMPDEST PUSH1 0x20 DUP3 LT DUP2 SUB PUSH3 0x140 JUMPI PUSH3 0x13F PUSH3 0xE2 JUMP JUMPDEST JUMPDEST POP SWAP2 SWAP1 POP JUMP JUMPDEST PUSH1 0x0 DUP2 SWAP1 POP DUP2 PUSH1 0x0 MSTORE PUSH1 0x20 PUSH1 0x0 KECCAK256 SWAP1 POP SWAP2 SWAP1 POP JUMP JUMPDEST PUSH1 0x0 PUSH1 0x20 PUSH1 0x1F DUP4 ADD DIV SWAP1 POP SWAP2 SWAP1 POP JUMP JUMPDEST PUSH1 0x0 DUP3 DUP3 SHL SWAP1 POP SWAP3 SWAP2 POP POP JUMP JUMPDEST PUSH1 0x0 PUSH1 0x8 DUP4 MUL PUSH3 0x1AA PUSH32 0xFFFFFFFFFFFFFFFFFFFFFFFFFFFFFFFFFFFFFFFFFFFFFFFFFFFFFFFFFFFFFFFF DUP3 PUSH3 0x16B JUMP JUMPDEST PUSH3 0x1B6 DUP7 DUP4 PUSH3 0x16B JUMP JUMPDEST SWAP6 POP DUP1 NOT DUP5 AND SWAP4 POP DUP1 DUP7 AND DUP5 OR SWAP3 POP POP POP SWAP4 SWAP3 POP POP POP JUMP JUMPDEST PUSH1 0x0 DUP2 SWAP1 POP SWAP2 SWAP1 POP JUMP JUMPDEST PUSH1 0x0 DUP2 SWAP1 POP SWAP2 SWAP1 POP JUMP JUMPDEST PUSH1 0x0 PUSH3 0x203 PUSH3 0x1FD PUSH3 0x1F7 DUP5 PUSH3 0x1CE JUMP JUMPDEST PUSH3 0x1D8 JUMP JUMPDEST PUSH3 0x1CE JUMP JUMPDEST SWAP1 POP SWAP2 SWAP1 POP JUMP JUMPDEST PUSH1 0x0 DUP2 SWAP1 POP SWAP2 SWAP1 POP JUMP JUMPDEST PUSH3 0x21F DUP4 PUSH3 0x1E2 JUMP JUMPDEST PUSH3 0x237 PUSH3 0x22E DUP3 PUSH3 0x20A JUMP JUMPDEST DUP5 DUP5 SLOAD PUSH3 0x178 JUMP JUMPDEST DUP3 SSTORE POP POP POP POP JUMP JUMPDEST PUSH1 0x0 SWAP1 JUMP JUMPDEST PUSH3 0x24E PUSH3 0x23F JUMP JUMPDEST PUSH3 0x25B DUP2 DUP5 DUP5 PUSH3 0x214 JUMP JUMPDEST POP POP POP JUMP JUMPDEST JUMPDEST DUP2 DUP2 LT ISZERO PUSH3 0x283 JUMPI PUSH3 0x277 PUSH1 0x0 DUP3 PUSH3 0x244 JUMP JUMPDEST PUSH1 0x1 DUP2 ADD SWAP1 POP PUSH3 0x261 JUMP JUMPDEST POP POP JUMP JUMPDEST PUSH1 0x1F DUP3 GT ISZERO PUSH3 0x2D2 JUMPI PUSH3 0x29C DUP2 PUSH3 0x146 JUMP JUMPDEST PUSH3 0x2A7 DUP5 PUSH3 0x15B JUMP JUMPDEST DUP2 ADD PUSH1 0x20 DUP6 LT ISZERO PUSH3 0x2B7 JUMPI DUP2 SWAP1 POP JUMPDEST PUSH3 0x2CF PUSH3 0x2C6 DUP6 PUSH3 0x15B JUMP JUMPDEST DUP4 ADD DUP3 PUSH3 0x260 JUMP JUMPDEST POP POP JUMPDEST POP POP POP JUMP JUMPDEST PUSH1 0x0 DUP3 DUP3 SHR SWAP1 POP SWAP3 SWAP2 POP POP JUMP JUMPDEST PUSH1 0x0 PUSH3 0x2F7 PUSH1 0x0 NOT DUP5 PUSH1 0x8 MUL PUSH3 0x2D7 JUMP JUMPDEST NOT DUP1 DUP4 AND SWAP2 POP POP SWAP3 SWAP2 POP POP JUMP JUMPDEST PUSH1 0x0 PUSH3 0x312 DUP4 DUP4 PUSH3 0x2E4 JUMP JUMPDEST SWAP2 POP DUP3 PUSH1 0x2 MUL DUP3 OR SWAP1 POP SWAP3 SWAP2 POP POP JUMP JUMPDEST PUSH3 0x32D DUP3 PUSH3 0xA8 JUMP JUMPDEST PUSH8 0xFFFFFFFFFFFFFFFF DUP2 GT ISZERO PUSH3 0x349 JUMPI PUSH3 0x348 PUSH3 0xB3 JUMP JUMPDEST JUMPDEST PUSH3 0x355 DUP3 SLOAD PUSH3 0x111 JUMP JUMPDEST PUSH3 0x362 DUP3 DUP3 DUP6 PUSH3 0x287 JUMP JUMPDEST PUSH1 0x0 PUSH1 0x20 SWAP1 POP PUSH1 0x1F DUP4 GT PUSH1 0x1 DUP2 EQ PUSH3 0x39A JUMPI PUSH1 0x0 DUP5 ISZERO PUSH3 0x385 JUMPI DUP3 DUP8 ADD MLOAD SWAP1 POP JUMPDEST PUSH3 0x391 DUP6 DUP3 PUSH3 0x304 JUMP JUMPDEST DUP7 SSTORE POP PUSH3 0x401 JUMP JUMPDEST PUSH1 0x1F NOT DUP5 AND PUSH3 0x3AA DUP7 PUSH3 0x146 JUMP JUMPDEST PUSH1 0x0 JUMPDEST DUP3 DUP2 LT ISZERO PUSH3 0x3D4 JUMPI DUP5 DUP10 ADD MLOAD DUP3 SSTORE PUSH1 0x1 DUP3 ADD SWAP2 POP PUSH1 0x20 DUP6 ADD SWAP5 POP PUSH1 0x20 DUP2 ADD SWAP1 POP PUSH3 0x3AD JUMP JUMPDEST DUP7 DUP4 LT ISZERO PUSH3 0x3F4 JUMPI DUP5 DUP10 ADD MLOAD PUSH3 0x3F0 PUSH1 0x1F DUP10 AND DUP3 PUSH3 0x2E4 JUMP JUMPDEST DUP4 SSTORE POP JUMPDEST PUSH1 0x1 PUSH1 0x2 DUP9 MUL ADD DUP9 SSTORE POP POP POP JUMPDEST POP POP POP POP POP POP JUMP JUMPDEST PUSH2 0xE8E DUP1 PUSH3 0x419 PUSH1 0x0 CODECOPY PUSH1 0x0 RETURN INVALID PUSH1 0x80 PUSH1 0x40 MSTORE PUSH1 0x4 CALLDATASIZE LT PUSH2 0x70 JUMPI PUSH1 0x0 CALLDATALOAD PUSH1 0xE0 SHR DUP1 PUSH4 0x8DA5CB5B GT PUSH2 0x4E JUMPI DUP1 PUSH4 0x8DA5CB5B EQ PUSH2 0xF6 JUMPI DUP1 PUSH4 0x95BC26D3 EQ PUSH2 0x121 JUMPI DUP1 PUSH4 0xE21F37CE EQ PUSH2 0x13D JUMPI DUP1 PUSH4 0xED40B191 EQ PUSH2 0x168 JUMPI PUSH2 0x70 JUMP JUMPDEST DUP1 PUSH4 0x1447278 EQ PUSH2 0x75 JUMPI DUP1 PUSH4 0x237DF35 EQ PUSH2 0xA0 JUMPI DUP1 PUSH4 0xBA37024 EQ PUSH2 0xCB JUMPI JUMPDEST PUSH1 0x0 DUP1 REVERT JUMPDEST CALLVALUE DUP1 ISZERO PUSH2 0x81 JUMPI PUSH1 0x0 DUP1 REVERT JUMPDEST POP PUSH2 0x8A PUSH2 0x191 JUMP JUMPDEST PUSH1 0x40 MLOAD PUSH2 0x97 SWAP2 SWAP1 PUSH2 0x7CA JUMP JUMPDEST PUSH1 0x40 MLOAD DUP1 SWAP2 SUB SWAP1 RETURN JUMPDEST CALLVALUE DUP1 ISZERO PUSH2 0xAC JUMPI PUSH1 0x0 DUP1 REVERT JUMPDEST POP PUSH2 0xB5 PUSH2 0x1B1 JUMP JUMPDEST PUSH1 0x40 MLOAD PUSH2 0xC2 SWAP2 SWAP1 PUSH2 0x7CA JUMP JUMPDEST PUSH1 0x40 MLOAD DUP1 SWAP2 SUB SWAP1 RETURN JUMPDEST CALLVALUE DUP1 ISZERO PUSH2 0xD7 JUMPI PUSH1 0x0 DUP1 REVERT JUMPDEST POP PUSH2 0xE0 PUSH2 0x23F JUMP JUMPDEST PUSH1 0x40 MLOAD PUSH2 0xED SWAP2 SWAP1 PUSH2 0x805 JUMP JUMPDEST PUSH1 0x40 MLOAD DUP1 SWAP2 SUB SWAP1 RETURN JUMPDEST CALLVALUE DUP1 ISZERO PUSH2 0x102 JUMPI PUSH1 0x0 DUP1 REVERT JUMPDEST POP PUSH2 0x10B PUSH2 0x245 JUMP JUMPDEST PUSH1 0x40 MLOAD PUSH2 0x118 SWAP2 SWAP1 PUSH2 0x861 JUMP JUMPDEST PUSH1 0x40 MLOAD DUP1 SWAP2 SUB SWAP1 RETURN JUMPDEST PUSH2 0x13B PUSH1 0x4 DUP1 CALLDATASIZE SUB DUP2 ADD SWAP1 PUSH2 0x136 SWAP2 SWAP1 PUSH2 0x9C5 JUMP JUMPDEST PUSH2 0x26B JUMP JUMPDEST STOP JUMPDEST CALLVALUE DUP1 ISZERO PUSH2 0x149 JUMPI PUSH1 0x0 DUP1 REVERT JUMPDEST POP PUSH2 0x152 PUSH2 0x31F JUMP JUMPDEST PUSH1 0x40 MLOAD PUSH2 0x15F SWAP2 SWAP1 PUSH2 0x7CA JUMP JUMPDEST PUSH1 0x40 MLOAD DUP1 SWAP2 SUB SWAP1 RETURN JUMPDEST CALLVALUE DUP1 ISZERO PUSH2 0x174 JUMPI PUSH1 0x0 DUP1 REVERT JUMPDEST POP PUSH2 0x18F PUSH1 0x4 DUP1 CALLDATASIZE SUB DUP2 ADD SWAP1 PUSH2 0x18A SWAP2 SWAP1 PUSH2 0xA3A JUMP JUMPDEST PUSH2 0x3AD JUMP JUMPDEST STOP JUMPDEST PUSH1 0x60 PUSH1 0x40 MLOAD DUP1 PUSH1 0x60 ADD PUSH1 0x40 MSTORE DUP1 PUSH1 0x21 DUP2 MSTORE PUSH1 0x20 ADD PUSH2 0xE38 PUSH1 0x21 SWAP2 CODECOPY SWAP1 POP SWAP1 JUMP JUMPDEST PUSH1 0x3 DUP1 SLOAD PUSH2 0x1BE SWAP1 PUSH2 0xA96 JUMP JUMPDEST DUP1 PUSH1 0x1F ADD PUSH1 0x20 DUP1 SWAP2 DIV MUL PUSH1 0x20 ADD PUSH1 0x40 MLOAD SWAP1 DUP2 ADD PUSH1 0x40 MSTORE DUP1 SWAP3 SWAP2 SWAP1 DUP2 DUP2 MSTORE PUSH1 0x20 ADD DUP3 DUP1 SLOAD PUSH2 0x1EA SWAP1 PUSH2 0xA96 JUMP JUMPDEST DUP1 ISZERO PUSH2 0x237 JUMPI DUP1 PUSH1 0x1F LT PUSH2 0x20C JUMPI PUSH2 0x100 DUP1 DUP4 SLOAD DIV MUL DUP4 MSTORE SWAP2 PUSH1 0x20 ADD SWAP2 PUSH2 0x237 JUMP JUMPDEST DUP3 ADD SWAP2 SWAP1 PUSH1 0x0 MSTORE PUSH1 0x20 PUSH1 0x0 KECCAK256 SWAP1 JUMPDEST DUP2 SLOAD DUP2 MSTORE SWAP1 PUSH1 0x1 ADD SWAP1 PUSH1 0x20 ADD DUP1 DUP4 GT PUSH2 0x21A JUMPI DUP3 SWAP1 SUB PUSH1 0x1F AND DUP3 ADD SWAP2 JUMPDEST POP POP POP POP POP DUP2 JUMP JUMPDEST PUSH1 0x1 SLOAD DUP2 JUMP JUMPDEST PUSH1 0x2 PUSH1 0x0 SWAP1 SLOAD SWAP1 PUSH2 0x100 EXP SWAP1 DIV PUSH20 0xFFFFFFFFFFFFFFFFFFFFFFFFFFFFFFFFFFFFFFFF AND DUP2 JUMP JUMPDEST PUSH8 0xDE0B6B3A7640000 CALLVALUE LT PUSH2 0x28F JUMPI DUP1 PUSH1 0x3 SWAP1 DUP2 PUSH2 0x289 SWAP2 SWAP1 PUSH2 0xC73 JUMP JUMPDEST POP PUSH2 0x31C JUMP JUMPDEST CALLER PUSH20 0xFFFFFFFFFFFFFFFFFFFFFFFFFFFFFFFFFFFFFFFF AND PUSH2 0x8FC CALLVALUE SWAP1 DUP2 ISZERO MUL SWAP1 PUSH1 0x40 MLOAD PUSH1 0x0 PUSH1 0x40 MLOAD DUP1 DUP4 SUB DUP2 DUP6 DUP9 DUP9 CALL SWAP4 POP POP POP POP ISZERO DUP1 ISZERO PUSH2 0x2D5 JUMPI RETURNDATASIZE PUSH1 0x0 DUP1 RETURNDATACOPY RETURNDATASIZE PUSH1 0x0 REVERT JUMPDEST POP PUSH1 0x40 MLOAD DUP1 PUSH1 0x40 ADD PUSH1 0x40 MSTORE DUP1 PUSH1 0xB DUP2 MSTORE PUSH1 0x20 ADD PUSH32 0x68656C6C6F20776F726C64000000000000000000000000000000000000000000 DUP2 MSTORE POP PUSH1 0x3 SWAP1 DUP2 PUSH2 0x31A SWAP2 SWAP1 PUSH2 0xC73 JUMP JUMPDEST POP JUMPDEST POP JUMP JUMPDEST PUSH1 0x0 DUP1 SLOAD PUSH2 0x32C SWAP1 PUSH2 0xA96 JUMP JUMPDEST DUP1 PUSH1 0x1F ADD PUSH1 0x20 DUP1 SWAP2 DIV MUL PUSH1 0x20 ADD PUSH1 0x40 MLOAD SWAP1 DUP2 ADD PUSH1 0x40 MSTORE DUP1 SWAP3 SWAP2 SWAP1 DUP2 DUP2 MSTORE PUSH1 0x20 ADD DUP3 DUP1 SLOAD PUSH2 0x358 SWAP1 PUSH2 0xA96 JUMP JUMPDEST DUP1 ISZERO PUSH2 0x3A5 JUMPI DUP1 PUSH1 0x1F LT PUSH2 0x37A JUMPI PUSH2 0x100 DUP1 DUP4 SLOAD DIV MUL DUP4 MSTORE SWAP2 PUSH1 0x20 ADD SWAP2 PUSH2 0x3A5 JUMP JUMPDEST DUP3 ADD SWAP2 SWAP1 PUSH1 0x0 MSTORE PUSH1 0x20 PUSH1 0x0 KECCAK256 SWAP1 JUMPDEST DUP2 SLOAD DUP2 MSTORE SWAP1 PUSH1 0x1 ADD SWAP1 PUSH1 0x20 ADD DUP1 DUP4 GT PUSH2 0x388 JUMPI DUP3 SWAP1 SUB PUSH1 0x1F AND DUP3 ADD SWAP2 JUMPDEST POP POP POP POP POP DUP2 JUMP JUMPDEST PUSH1 0x2 PUSH1 0x0 SWAP1 SLOAD SWAP1 PUSH2 0x100 EXP SWAP1 DIV PUSH20 0xFFFFFFFFFFFFFFFFFFFFFFFFFFFFFFFFFFFFFFFF AND PUSH20 0xFFFFFFFFFFFFFFFFFFFFFFFFFFFFFFFFFFFFFFFF AND DUP2 PUSH20 0xFFFFFFFFFFFFFFFFFFFFFFFFFFFFFFFFFFFFFFFF AND SUB PUSH2 0x4E5 JUMPI PUSH1 0x0 PUSH1 0x40 MLOAD DUP1 PUSH1 0x40 ADD PUSH1 0x40 MSTORE DUP1 PUSH1 0x13 DUP2 MSTORE PUSH1 0x20 ADD PUSH32 0x686920626F73732C207468657265206172652000000000000000000000000000 DUP2 MSTORE POP SWAP1 POP PUSH1 0x0 PUSH2 0x449 PUSH1 0x1 SLOAD PUSH2 0x519 JUMP JUMPDEST SWAP1 POP PUSH1 0x0 PUSH1 0x40 MLOAD DUP1 PUSH1 0x40 ADD PUSH1 0x40 MSTORE DUP1 PUSH1 0x13 DUP2 MSTORE PUSH1 0x20 ADD PUSH32 0x206F662076697369746F727320636F6D696E6700000000000000000000000000 DUP2 MSTORE POP SWAP1 POP PUSH1 0x0 DUP4 DUP4 PUSH1 0x40 MLOAD PUSH1 0x20 ADD PUSH2 0x49A SWAP3 SWAP2 SWAP1 PUSH2 0xD81 JUMP JUMPDEST PUSH1 0x40 MLOAD PUSH1 0x20 DUP2 DUP4 SUB SUB DUP2 MSTORE SWAP1 PUSH1 0x40 MSTORE SWAP1 POP DUP1 DUP3 PUSH1 0x40 MLOAD PUSH1 0x20 ADD PUSH2 0x4BE SWAP3 SWAP2 SWAP1 PUSH2 0xD81 JUMP JUMPDEST PUSH1 0x40 MLOAD PUSH1 0x20 DUP2 DUP4 SUB SUB DUP2 MSTORE SWAP1 PUSH1 0x40 MSTORE PUSH1 0x0 SWAP1 DUP2 PUSH2 0x4DB SWAP2 SWAP1 PUSH2 0xC73 JUMP JUMPDEST POP POP POP POP POP PUSH2 0x516 JUMP JUMPDEST PUSH1 0x1 DUP1 PUSH1 0x0 DUP3 DUP3 SLOAD PUSH2 0x4F7 SWAP2 SWAP1 PUSH2 0xDD4 JUMP JUMPDEST SWAP3 POP POP DUP2 SWAP1 SSTORE POP PUSH2 0x506 PUSH2 0x191 JUMP JUMPDEST PUSH1 0x0 SWAP1 DUP2 PUSH2 0x514 SWAP2 SWAP1 PUSH2 0xC73 JUMP JUMPDEST POP JUMPDEST POP JUMP JUMPDEST PUSH1 0x60 PUSH1 0x0 PUSH1 0x1 PUSH2 0x528 DUP5 PUSH2 0x5E7 JUMP JUMPDEST ADD SWAP1 POP PUSH1 0x0 DUP2 PUSH8 0xFFFFFFFFFFFFFFFF DUP2 GT ISZERO PUSH2 0x547 JUMPI PUSH2 0x546 PUSH2 0x89A JUMP JUMPDEST JUMPDEST PUSH1 0x40 MLOAD SWAP1 DUP1 DUP3 MSTORE DUP1 PUSH1 0x1F ADD PUSH1 0x1F NOT AND PUSH1 0x20 ADD DUP3 ADD PUSH1 0x40 MSTORE DUP1 ISZERO PUSH2 0x579 JUMPI DUP2 PUSH1 0x20 ADD PUSH1 0x1 DUP3 MUL DUP1 CALLDATASIZE DUP4 CALLDATACOPY DUP1 DUP3 ADD SWAP2 POP POP SWAP1 POP JUMPDEST POP SWAP1 POP PUSH1 0x0 DUP3 PUSH1 0x20 ADD DUP3 ADD SWAP1 POP JUMPDEST PUSH1 0x1 ISZERO PUSH2 0x5DC JUMPI DUP1 DUP1 PUSH1 0x1 SWAP1 SUB SWAP2 POP POP PUSH32 0x3031323334353637383961626364656600000000000000000000000000000000 PUSH1 0xA DUP7 MOD BYTE DUP2 MSTORE8 PUSH1 0xA DUP6 DUP2 PUSH2 0x5D0 JUMPI PUSH2 0x5CF PUSH2 0xE08 JUMP JUMPDEST JUMPDEST DIV SWAP5 POP PUSH1 0x0 DUP6 SUB PUSH2 0x587 JUMPI JUMPDEST DUP2 SWAP4 POP POP POP POP SWAP2 SWAP1 POP JUMP JUMPDEST PUSH1 0x0 DUP1 PUSH1 0x0 SWAP1 POP PUSH27 0x184F03E93FF9F4DAA797ED6E38ED64BF6A1F010000000000000000 DUP4 LT PUSH2 0x645 JUMPI PUSH27 0x184F03E93FF9F4DAA797ED6E38ED64BF6A1F010000000000000000 DUP4 DUP2 PUSH2 0x63B JUMPI PUSH2 0x63A PUSH2 0xE08 JUMP JUMPDEST JUMPDEST DIV SWAP3 POP PUSH1 0x40 DUP2 ADD SWAP1 POP JUMPDEST PUSH14 0x4EE2D6D415B85ACEF8100000000 DUP4 LT PUSH2 0x682 JUMPI PUSH14 0x4EE2D6D415B85ACEF8100000000 DUP4 DUP2 PUSH2 0x678 JUMPI PUSH2 0x677 PUSH2 0xE08 JUMP JUMPDEST JUMPDEST DIV SWAP3 POP PUSH1 0x20 DUP2 ADD SWAP1 POP JUMPDEST PUSH7 0x2386F26FC10000 DUP4 LT PUSH2 0x6B1 JUMPI PUSH7 0x2386F26FC10000 DUP4 DUP2 PUSH2 0x6A7 JUMPI PUSH2 0x6A6 PUSH2 0xE08 JUMP JUMPDEST JUMPDEST DIV SWAP3 POP PUSH1 0x10 DUP2 ADD SWAP1 POP JUMPDEST PUSH4 0x5F5E100 DUP4 LT PUSH2 0x6DA JUMPI PUSH4 0x5F5E100 DUP4 DUP2 PUSH2 0x6D0 JUMPI PUSH2 0x6CF PUSH2 0xE08 JUMP JUMPDEST JUMPDEST DIV SWAP3 POP PUSH1 0x8 DUP2 ADD SWAP1 POP JUMPDEST PUSH2 0x2710 DUP4 LT PUSH2 0x6FF JUMPI PUSH2 0x2710 DUP4 DUP2 PUSH2 0x6F5 JUMPI PUSH2 0x6F4 PUSH2 0xE08 JUMP JUMPDEST JUMPDEST DIV SWAP3 POP PUSH1 0x4 DUP2 ADD SWAP1 POP JUMPDEST PUSH1 0x64 DUP4 LT PUSH2 0x722 JUMPI PUSH1 0x64 DUP4 DUP2 PUSH2 0x718 JUMPI PUSH2 0x717 PUSH2 0xE08 JUMP JUMPDEST JUMPDEST DIV SWAP3 POP PUSH1 0x2 DUP2 ADD SWAP1 POP JUMPDEST PUSH1 0xA DUP4 LT PUSH2 0x731 JUMPI PUSH1 0x1 DUP2 ADD SWAP1 POP JUMPDEST DUP1 SWAP2 POP POP SWAP2 SWAP1 POP JUMP JUMPDEST PUSH1 0x0 DUP2 MLOAD SWAP1 POP SWAP2 SWAP1 POP JUMP JUMPDEST PUSH1 0x0 DUP3 DUP3 MSTORE PUSH1 0x20 DUP3 ADD SWAP1 POP SWAP3 SWAP2 POP POP JUMP JUMPDEST PUSH1 0x0 JUMPDEST DUP4 DUP2 LT ISZERO PUSH2 0x774 JUMPI DUP1 DUP3 ADD MLOAD DUP2 DUP5 ADD MSTORE PUSH1 0x20 DUP2 ADD SWAP1 POP PUSH2 0x759 JUMP JUMPDEST PUSH1 0x0 DUP5 DUP5 ADD MSTORE POP POP POP POP JUMP JUMPDEST PUSH1 0x0 PUSH1 0x1F NOT PUSH1 0x1F DUP4 ADD AND SWAP1 POP SWAP2 SWAP1 POP JUMP JUMPDEST PUSH1 0x0 PUSH2 0x79C DUP3 PUSH2 0x73A JUMP JUMPDEST PUSH2 0x7A6 DUP2 DUP6 PUSH2 0x745 JUMP JUMPDEST SWAP4 POP PUSH2 0x7B6 DUP2 DUP6 PUSH1 0x20 DUP7 ADD PUSH2 0x756 JUMP JUMPDEST PUSH2 0x7BF DUP2 PUSH2 0x780 JUMP JUMPDEST DUP5 ADD SWAP2 POP POP SWAP3 SWAP2 POP POP JUMP JUMPDEST PUSH1 0x0 PUSH1 0x20 DUP3 ADD SWAP1 POP DUP2 DUP2 SUB PUSH1 0x0 DUP4 ADD MSTORE PUSH2 0x7E4 DUP2 DUP5 PUSH2 0x791 JUMP JUMPDEST SWAP1 POP SWAP3 SWAP2 POP POP JUMP JUMPDEST PUSH1 0x0 DUP2 SWAP1 POP SWAP2 SWAP1 POP JUMP JUMPDEST PUSH2 0x7FF DUP2 PUSH2 0x7EC JUMP JUMPDEST DUP3 MSTORE POP POP JUMP JUMPDEST PUSH1 0x0 PUSH1 0x20 DUP3 ADD SWAP1 POP PUSH2 0x81A PUSH1 0x0 DUP4 ADD DUP5 PUSH2 0x7F6 JUMP JUMPDEST SWAP3 SWAP2 POP POP JUMP JUMPDEST PUSH1 0x0 PUSH20 0xFFFFFFFFFFFFFFFFFFFFFFFFFFFFFFFFFFFFFFFF DUP3 AND SWAP1 POP SWAP2 SWAP1 POP JUMP JUMPDEST PUSH1 0x0 PUSH2 0x84B DUP3 PUSH2 0x820 JUMP JUMPDEST SWAP1 POP SWAP2 SWAP1 POP JUMP JUMPDEST PUSH2 0x85B DUP2 PUSH2 0x840 JUMP JUMPDEST DUP3 MSTORE POP POP JUMP JUMPDEST PUSH1 0x0 PUSH1 0x20 DUP3 ADD SWAP1 POP PUSH2 0x876 PUSH1 0x0 DUP4 ADD DUP5 PUSH2 0x852 JUMP JUMPDEST SWAP3 SWAP2 POP POP JUMP JUMPDEST PUSH1 0x0 PUSH1 0x40 MLOAD SWAP1 POP SWAP1 JUMP JUMPDEST PUSH1 0x0 DUP1 REVERT JUMPDEST PUSH1 0x0 DUP1 REVERT JUMPDEST PUSH1 0x0 DUP1 REVERT JUMPDEST PUSH1 0x0 DUP1 REVERT JUMPDEST PUSH32 0x4E487B7100000000000000000000000000000000000000000000000000000000 PUSH1 0x0 MSTORE PUSH1 0x41 PUSH1 0x4 MSTORE PUSH1 0x24 PUSH1 0x0 REVERT JUMPDEST PUSH2 0x8D2 DUP3 PUSH2 0x780 JUMP JUMPDEST DUP2 ADD DUP2 DUP2 LT PUSH8 0xFFFFFFFFFFFFFFFF DUP3 GT OR ISZERO PUSH2 0x8F1 JUMPI PUSH2 0x8F0 PUSH2 0x89A JUMP JUMPDEST JUMPDEST DUP1 PUSH1 0x40 MSTORE POP POP POP JUMP JUMPDEST PUSH1 0x0 PUSH2 0x904 PUSH2 0x87C JUMP JUMPDEST SWAP1 POP PUSH2 0x910 DUP3 DUP3 PUSH2 0x8C9 JUMP JUMPDEST SWAP2 SWAP1 POP JUMP JUMPDEST PUSH1 0x0 PUSH8 0xFFFFFFFFFFFFFFFF DUP3 GT ISZERO PUSH2 0x930 JUMPI PUSH2 0x92F PUSH2 0x89A JUMP JUMPDEST JUMPDEST PUSH2 0x939 DUP3 PUSH2 0x780 JUMP JUMPDEST SWAP1 POP PUSH1 0x20 DUP2 ADD SWAP1 POP SWAP2 SWAP1 POP JUMP JUMPDEST DUP3 DUP2 DUP4 CALLDATACOPY PUSH1 0x0 DUP4 DUP4 ADD MSTORE POP POP POP JUMP JUMPDEST PUSH1 0x0 PUSH2 0x968 PUSH2 0x963 DUP5 PUSH2 0x915 JUMP JUMPDEST PUSH2 0x8FA JUMP JUMPDEST SWAP1 POP DUP3 DUP2 MSTORE PUSH1 0x20 DUP2 ADD DUP5 DUP5 DUP5 ADD GT ISZERO PUSH2 0x984 JUMPI PUSH2 0x983 PUSH2 0x895 JUMP JUMPDEST JUMPDEST PUSH2 0x98F DUP5 DUP3 DUP6 PUSH2 0x946 JUMP JUMPDEST POP SWAP4 SWAP3 POP POP POP JUMP JUMPDEST PUSH1 0x0 DUP3 PUSH1 0x1F DUP4 ADD SLT PUSH2 0x9AC JUMPI PUSH2 0x9AB PUSH2 0x890 JUMP JUMPDEST JUMPDEST DUP2 CALLDATALOAD PUSH2 0x9BC DUP5 DUP3 PUSH1 0x20 DUP7 ADD PUSH2 0x955 JUMP JUMPDEST SWAP2 POP POP SWAP3 SWAP2 POP POP JUMP JUMPDEST PUSH1 0x0 PUSH1 0x20 DUP3 DUP5 SUB SLT ISZERO PUSH2 0x9DB JUMPI PUSH2 0x9DA PUSH2 0x886 JUMP JUMPDEST JUMPDEST PUSH1 0x0 DUP3 ADD CALLDATALOAD PUSH8 0xFFFFFFFFFFFFFFFF DUP2 GT ISZERO PUSH2 0x9F9 JUMPI PUSH2 0x9F8 PUSH2 0x88B JUMP JUMPDEST JUMPDEST PUSH2 0xA05 DUP5 DUP3 DUP6 ADD PUSH2 0x997 JUMP JUMPDEST SWAP2 POP POP SWAP3 SWAP2 POP POP JUMP JUMPDEST PUSH2 0xA17 DUP2 PUSH2 0x840 JUMP JUMPDEST DUP2 EQ PUSH2 0xA22 JUMPI PUSH1 0x0 DUP1 REVERT JUMPDEST POP JUMP JUMPDEST PUSH1 0x0 DUP2 CALLDATALOAD SWAP1 POP PUSH2 0xA34 DUP2 PUSH2 0xA0E JUMP JUMPDEST SWAP3 SWAP2 POP POP JUMP JUMPDEST PUSH1 0x0 PUSH1 0x20 DUP3 DUP5 SUB SLT ISZERO PUSH2 0xA50 JUMPI PUSH2 0xA4F PUSH2 0x886 JUMP JUMPDEST JUMPDEST PUSH1 0x0 PUSH2 0xA5E DUP5 DUP3 DUP6 ADD PUSH2 0xA25 JUMP JUMPDEST SWAP2 POP POP SWAP3 SWAP2 POP POP JUMP JUMPDEST PUSH32 0x4E487B7100000000000000000000000000000000000000000000000000000000 PUSH1 0x0 MSTORE PUSH1 0x22 PUSH1 0x4 MSTORE PUSH1 0x24 PUSH1 0x0 REVERT JUMPDEST PUSH1 0x0 PUSH1 0x2 DUP3 DIV SWAP1 POP PUSH1 0x1 DUP3 AND DUP1 PUSH2 0xAAE JUMPI PUSH1 0x7F DUP3 AND SWAP2 POP JUMPDEST PUSH1 0x20 DUP3 LT DUP2 SUB PUSH2 0xAC1 JUMPI PUSH2 0xAC0 PUSH2 0xA67 JUMP JUMPDEST JUMPDEST POP SWAP2 SWAP1 POP JUMP JUMPDEST PUSH1 0x0 DUP2 SWAP1 POP DUP2 PUSH1 0x0 MSTORE PUSH1 0x20 PUSH1 0x0 KECCAK256 SWAP1 POP SWAP2 SWAP1 POP JUMP JUMPDEST PUSH1 0x0 PUSH1 0x20 PUSH1 0x1F DUP4 ADD DIV SWAP1 POP SWAP2 SWAP1 POP JUMP JUMPDEST PUSH1 0x0 DUP3 DUP3 SHL SWAP1 POP SWAP3 SWAP2 POP POP JUMP JUMPDEST PUSH1 0x0 PUSH1 0x8 DUP4 MUL PUSH2 0xB29 PUSH32 0xFFFFFFFFFFFFFFFFFFFFFFFFFFFFFFFFFFFFFFFFFFFFFFFFFFFFFFFFFFFFFFFF DUP3 PUSH2 0xAEC JUMP JUMPDEST PUSH2 0xB33 DUP7 DUP4 PUSH2 0xAEC JUMP JUMPDEST SWAP6 POP DUP1 NOT DUP5 AND SWAP4 POP DUP1 DUP7 AND DUP5 OR SWAP3 POP POP POP SWAP4 SWAP3 POP POP POP JUMP JUMPDEST PUSH1 0x0 DUP2 SWAP1 POP SWAP2 SWAP1 POP JUMP JUMPDEST PUSH1 0x0 PUSH2 0xB70 PUSH2 0xB6B PUSH2 0xB66 DUP5 PUSH2 0x7EC JUMP JUMPDEST PUSH2 0xB4B JUMP JUMPDEST PUSH2 0x7EC JUMP JUMPDEST SWAP1 POP SWAP2 SWAP1 POP JUMP JUMPDEST PUSH1 0x0 DUP2 SWAP1 POP SWAP2 SWAP1 POP JUMP JUMPDEST PUSH2 0xB8A DUP4 PUSH2 0xB55 JUMP JUMPDEST PUSH2 0xB9E PUSH2 0xB96 DUP3 PUSH2 0xB77 JUMP JUMPDEST DUP5 DUP5 SLOAD PUSH2 0xAF9 JUMP JUMPDEST DUP3 SSTORE POP POP POP POP JUMP JUMPDEST PUSH1 0x0 SWAP1 JUMP JUMPDEST PUSH2 0xBB3 PUSH2 0xBA6 JUMP JUMPDEST PUSH2 0xBBE DUP2 DUP5 DUP5 PUSH2 0xB81 JUMP JUMPDEST POP POP POP JUMP JUMPDEST JUMPDEST DUP2 DUP2 LT ISZERO PUSH2 0xBE2 JUMPI PUSH2 0xBD7 PUSH1 0x0 DUP3 PUSH2 0xBAB JUMP JUMPDEST PUSH1 0x1 DUP2 ADD SWAP1 POP PUSH2 0xBC4 JUMP JUMPDEST POP POP JUMP JUMPDEST PUSH1 0x1F DUP3 GT ISZERO PUSH2 0xC27 JUMPI PUSH2 0xBF8 DUP2 PUSH2 0xAC7 JUMP JUMPDEST PUSH2 0xC01 DUP5 PUSH2 0xADC JUMP JUMPDEST DUP2 ADD PUSH1 0x20 DUP6 LT ISZERO PUSH2 0xC10 JUMPI DUP2 SWAP1 POP JUMPDEST PUSH2 0xC24 PUSH2 0xC1C DUP6 PUSH2 0xADC JUMP JUMPDEST DUP4 ADD DUP3 PUSH2 0xBC3 JUMP JUMPDEST POP POP JUMPDEST POP POP POP JUMP JUMPDEST PUSH1 0x0 DUP3 DUP3 SHR SWAP1 POP SWAP3 SWAP2 POP POP JUMP JUMPDEST PUSH1 0x0 PUSH2 0xC4A PUSH1 0x0 NOT DUP5 PUSH1 0x8 MUL PUSH2 0xC2C JUMP JUMPDEST NOT DUP1 DUP4 AND SWAP2 POP POP SWAP3 SWAP2 POP POP JUMP JUMPDEST PUSH1 0x0 PUSH2 0xC63 DUP4 DUP4 PUSH2 0xC39 JUMP JUMPDEST SWAP2 POP DUP3 PUSH1 0x2 MUL DUP3 OR SWAP1 POP SWAP3 SWAP2 POP POP JUMP JUMPDEST PUSH2 0xC7C DUP3 PUSH2 0x73A JUMP JUMPDEST PUSH8 0xFFFFFFFFFFFFFFFF DUP2 GT ISZERO PUSH2 0xC95 JUMPI PUSH2 0xC94 PUSH2 0x89A JUMP JUMPDEST JUMPDEST PUSH2 0xC9F DUP3 SLOAD PUSH2 0xA96 JUMP JUMPDEST PUSH2 0xCAA DUP3 DUP3 DUP6 PUSH2 0xBE6 JUMP JUMPDEST PUSH1 0x0 PUSH1 0x20 SWAP1 POP PUSH1 0x1F DUP4 GT PUSH1 0x1 DUP2 EQ PUSH2 0xCDD JUMPI PUSH1 0x0 DUP5 ISZERO PUSH2 0xCCB JUMPI DUP3 DUP8 ADD MLOAD SWAP1 POP JUMPDEST PUSH2 0xCD5 DUP6 DUP3 PUSH2 0xC57 JUMP JUMPDEST DUP7 SSTORE POP PUSH2 0xD3D JUMP JUMPDEST PUSH1 0x1F NOT DUP5 AND PUSH2 0xCEB DUP7 PUSH2 0xAC7 JUMP JUMPDEST PUSH1 0x0 JUMPDEST DUP3 DUP2 LT ISZERO PUSH2 0xD13 JUMPI DUP5 DUP10 ADD MLOAD DUP3 SSTORE PUSH1 0x1 DUP3 ADD SWAP2 POP PUSH1 0x20 DUP6 ADD SWAP5 POP PUSH1 0x20 DUP2 ADD SWAP1 POP PUSH2 0xCEE JUMP JUMPDEST DUP7 DUP4 LT ISZERO PUSH2 0xD30 JUMPI DUP5 DUP10 ADD MLOAD PUSH2 0xD2C PUSH1 0x1F DUP10 AND DUP3 PUSH2 0xC39 JUMP JUMPDEST DUP4 SSTORE POP JUMPDEST PUSH1 0x1 PUSH1 0x2 DUP9 MUL ADD DUP9 SSTORE POP POP POP JUMPDEST POP POP POP POP POP POP JUMP JUMPDEST PUSH1 0x0 DUP2 SWAP1 POP SWAP3 SWAP2 POP POP JUMP JUMPDEST PUSH1 0x0 PUSH2 0xD5B DUP3 PUSH2 0x73A JUMP JUMPDEST PUSH2 0xD65 DUP2 DUP6 PUSH2 0xD45 JUMP JUMPDEST SWAP4 POP PUSH2 0xD75 DUP2 DUP6 PUSH1 0x20 DUP7 ADD PUSH2 0x756 JUMP JUMPDEST DUP1 DUP5 ADD SWAP2 POP POP SWAP3 SWAP2 POP POP JUMP JUMPDEST PUSH1 0x0 PUSH2 0xD8D DUP3 DUP6 PUSH2 0xD50 JUMP JUMPDEST SWAP2 POP PUSH2 0xD99 DUP3 DUP5 PUSH2 0xD50 JUMP JUMPDEST SWAP2 POP DUP2 SWAP1 POP SWAP4 SWAP3 POP POP POP JUMP JUMPDEST PUSH32 0x4E487B7100000000000000000000000000000000000000000000000000000000 PUSH1 0x0 MSTORE PUSH1 0x11 PUSH1 0x4 MSTORE PUSH1 0x24 PUSH1 0x0 REVERT JUMPDEST PUSH1 0x0 PUSH2 0xDDF DUP3 PUSH2 0x7EC JUMP JUMPDEST SWAP2 POP PUSH2 0xDEA DUP4 PUSH2 0x7EC JUMP JUMPDEST SWAP3 POP DUP3 DUP3 ADD SWAP1 POP DUP1 DUP3 GT ISZERO PUSH2 0xE02 JUMPI PUSH2 0xE01 PUSH2 0xDA5 JUMP JUMPDEST JUMPDEST SWAP3 SWAP2 POP POP JUMP JUMPDEST PUSH32 0x4E487B7100000000000000000000000000000000000000000000000000000000 PUSH1 0x0 MSTORE PUSH1 0x12 PUSH1 0x4 MSTORE PUSH1 0x24 PUSH1 0x0 REVERT INVALID BASEFEE PUSH10 0x2C2077656C636F6D6520 PUSH21 0x6F206F757220736D61727420636F6E7472616374A2 PUSH5 0x6970667358 0x22 SLT KECCAK256 SHL 0xB8 SWAP4 AND PREVRANDAO BALANCE NOT PREVRANDAO 0x4E PUSH18 0xB6296E96A9440DCC42D13F9D1F3E6503C7EF 0xBB PUSH0 CODESIZE 0xDD PUSH5 0x736F6C6343 STOP ADDMOD XOR STOP CALLER "},"methodIdentifiers":{"greetVisitor()":"01447278","message()":"e21f37ce","owner()":"8da5cb5b","payedMsg()":"0237df35","updatePayedMsg(string)":"95bc26d3","visit(address)":"ed40b191","visitorCount()":"0ba37024"}}}}}